:100000000C9463000C948B000C948B000C9477037D
:100010000C9477030C9477030C948B000C948B0056
:100020000C948B000C948B000C948B000C948B0024
:100030000C948B000C948B000C948B000C948B0014
:100040000C94D5020C948B000C9445030C941F0364
:100050000C948B000C948B000C948B000C948B00F4
:100060000C948B000C948B000000000024002700EF
:100070002A0000000008000201000003040700003D
:1000800000000000000000000000230026002900FE
:1000900000000000250028002B00040404040404D0
:1000A0000404020202020202030303030303010227
:1000B00004081020408001020408102001020408F6
:1000C0001020EF03FD0511241FBECFEFD8E0DEBFE7
:1000D000CDBF22E0A2E4B1E001C01D92A535B20778
:1000E000E1F711E0A0E0B1E0EAEBF0E102C0059039
:1000F0000D92A234B107D9F710E0C2E6D0E004C0F7
:100100002197FE010E945806C136D107C9F70E9407
:10011000DE040C9450080C940000FC01538D448DB7
:10012000252F30E0842F90E0821B930B541710F0A2
:10013000CF96089501970895FC01918D828D9817AF
:1001400061F0A28DAE0FBF2FB11D5D968C91928D87
:100150009F5F9F73928F90E008958FEF9FEF0895B8
:10016000FC01918D828D981731F0828DE80FF11D81
:10017000858D90E008958FEF9FEF0895FC01918D9C
:10018000228D892F90E0805C9F4F821B91098F7395
:1001900099270895FC01A48DA80FB92FB11DA35A6A
:1001A000BF4F2C91848D90E001968F739927848F97
:1001B000A689B7892C93A089B1898C9183708064BA
:1001C0008C93938D848D981306C00288F389E02D5B
:1001D00080818F7D80830895EF92FF920F931F930C
:1001E000CF93DF93EC0181E0888F9B8D8C8D9813EA
:1001F0001AC0E889F989808185FF15C09FB7F894F6
:10020000EE89FF896083E889F98980818370806441
:1002100080839FBF81E090E0DF91CF911F910F918C
:10022000FF90EF900895F62E0B8D10E00F5F1F4F9B
:100230000F731127E02E8C8D8E110CC00FB607FCAA
:10024000FACFE889F989808185FFF5CFCE010E9438
:10025000CA00F1CFEB8DEC0FFD2FF11DE35AFF4FDC
:10026000F0829FB7F8940B8FEA89FB8980818062C6
:10027000CFCFCF93DF93EC01888D8823B9F0AA8983
:10028000BB89E889F9898C9185FD03C0808186FD51
:100290000DC00FB607FCF7CF8C9185FFF2CF8081A0
:1002A00085FFEDCFCE010E94CA00E9CFDF91CF914B
:1002B00008958FE891E00E94BE0021E0892B09F4A7
:1002C00020E0822F089580E090E0892B29F00E94A1
:1002D000590181110C940000089590E0FC01EE5842
:1002E000FF4F2491FC01E255FF4F3491FC01E6568B
:1002F000FF4FE491EE23C9F0222339F0233001F1BE
:10030000A8F4213019F1223029F1F0E0EE0FFF1F9F
:10031000E057FF4FA591B4918FB7F894EC9161111C
:1003200026C030953E233C938FBF08952730A9F017
:100330002830C9F0243049F7809180008F7D03C0B8
:10034000809180008F7780938000DFCF84B58F7796
:1003500084BDDBCF84B58F7DFBCF8091B0008F77DC
:100360008093B000D2CF8091B0008F7DF9CF3E2B2B
:10037000DACFCF93DF9390E0FC01E255FF4F249159
:1003800086569F4FFC0184918823D1F090E0880F1E
:10039000991FFC01E859FF4FA591B491FC01E0576A
:1003A000FF4FC591D49161110EC09FB7F8948C9105
:1003B000E22FE0958E238C932881E223E8839FBF70
:1003C000DF91CF9108958FB7F894EC91E22BEC93E5
:1003D0008FBFF6CFAF92BF92CF92DF92EF92FF9294
:1003E0000F931F93CF93DF936C017B018B01040F5D
:1003F000151FEB015E01AE18BF08C017D10759F0F9
:100400006991D601ED91FC910190F081E02DC6013A
:100410000995892B79F7C501DF91CF911F910F9134
:10042000FF90EF90DF90CF90BF90AF900895209114
:100430008401309185012817390771F49091820168
:1004400080918301981741F0E0918201F0E0EE5B2A
:10045000FE4F808190E008958FEF9FEF08950895FB
:10046000EF92FF920F931F93CF93DF93DC015C9683
:10047000ED90FC905D97E114F10479F481E090E057
:1004800013969C938E93129790E080E0DF91CF912A
:100490001F910F91FF90EF9008955196ED91FC916F
:1004A000529750968C915097982F90950FB75E96D3
:1004B0002C915E97122F127021FD6095F894208187
:1004C000112319F1282B2083E7012197F1F728E068
:1004D000462F50E0308160FF1AC0382B3083E7018F
:1004E0002197F1F7BA0175956795215089F7112386
:1004F00081F08081892380830FBF5C968D919C91D0
:100500000197F1F781E090E0C1CF2923DCCF3923B7
:10051000E5CF9081892BEFCF209184013091850127
:100520002817390761F4809183012091820190E0BE
:10053000805C9F4F821B91098F739927089590E0EB
:1005400080E00895209184013091850128173907B2
:10055000B9F49091820180918301981789F0E0911C
:100560008201F0E0EE5BFE4F80812091820130E05D
:100570002F5F3F4F2F7333272093820190E0089520
:100580008FEF9FEF089590E080E00895FB010190C8
:100590000020E9F73197AF01461B570BDC01ED91C5
:1005A000FC910280F381E02D09941F920F920FB607
:1005B0000F9211242F933F938F939F93AF93BF93E9
:1005C00080918B0190918C01A0918D01B0918E0151
:1005D00030918A0123E0230F2D3758F50196A11D94
:1005E000B11D20938A0180938B0190938C01A0937D
:1005F0008D01B0938E018091860190918701A09129
:100600008801B09189010196A11DB11D80938601D9
:1006100090938701A0938801B0938901BF91AF9116
:100620009F918F913F912F910F900FBE0F901F9030
:10063000189526E8230F0296A11DB11DD2CF1F9257
:100640000F920FB60F9211242F933F934F935F9306
:100650006F937F938F939F93AF93BF93EF93FF938A
:100660008FE891E00E94CA00FF91EF91BF91AF9196
:100670009F918F917F916F915F914F913F912F91BA
:100680000F900FBE0F901F9018951F920F920FB6EC
:100690000F9211242F938F939F93EF93FF93E091E9
:1006A0009F01F091A0018081E091A501F091A60148
:1006B00082FD1BC090818091A8018F5F8F73209174
:1006C000A901821741F0E091A801F0E0E157FE4F47
:1006D000958F8093A801FF91EF919F918F912F911A
:1006E0000F900FBE0F901F9018958081F4CF1F922E
:1006F0000F920FB60F9211242F933F934F935F9356
:100700006F937F938F939F93AF93BF93EF93FF93D9
:10071000E0918401F0918501309749F0A685B78575
:100720008585968D91FF14C09C918923A1F4FF913A
:10073000EF91BF91AF919F918F917F916F915F9159
:100740004F913F912F910F900FBE0F901F901895D2
:100750009C91892361F7A389B4899C9185898095AF
:1007600089238C93868997890197F1F7608D718D24
:10077000A685B785558538E020E0CB010197F1F7D4
:10078000822F90E095958795282F4C91452309F06D
:100790002068315091F7868D81FD209580918301ED
:1007A00090E001968F73992730918201381799F064
:1007B000A0918301B0E0AE5BBE4F2C938093830188
:1007C000828D938D0197F1F7A389B4898C919589D6
:1007D000892B8C93ACCF868D8160868FF1CF109260
:1007E00092011092910188EE93E0A0E0B0E0809336
:1007F000930190939401A0939501B09396012AE000
:1008000031E03093900120938F0125EC30E030935C
:100810009C0120939B0124EC30E030939E012093B7
:100820009D0120EC30E03093A00120939F0121EC4A
:1008300030E03093A2012093A10122EC30E030930C
:10084000A4012093A30126EC30E03093A60120936D
:10085000A5011092A8011092A9011092AA0110926C
:10086000AB011092350210923402809336029093BD
:100870003702A0933802B09339028CE191E0909353
:100880003302809332021092490210924802109271
:100890004B0210924A0210924D0210924C0210929A
:1008A0004F0210924E02609150026E7F6D7F6093F6
:1008B00050026695617081E068278BE00E946D01AF
:1008C00061E08BE00E94B901E9EBF0E0E491E09394
:1008D0004202E5EAF0E0E491F0E0EE0FFF1FE0579E
:1008E000FF4F85919491909344028093430260E07E
:1008F0008AE00E94B9018091500281FD04C061E04C
:100900008AE00E946D018AE080933E02E8EBF0E00D
:10091000E491E0933F02E4EAF0E0E491F0E0EE0FCE
:10092000FF1FEA57FF4F8591949190934102809366
:10093000400210922D0210922C0210922F0210925F
:100940002E02109231021092300261E070E090E0CD
:1009500080E00E9483070097E1F090932D0280933E
:100960002C0210922F0210922E0220913002309110
:100970003102232B11F4FC011082109231021092EB
:10098000300260E471E080912C0290912D020C9471
:10099000490880912C0290912D02009711F00E943D
:1009A000FA0610922D0210922C021092310210922F
:1009B000300210922F0210922E020895789484B57E
:1009C000826084BD84B5816084BD85B5826085BD4B
:1009D00085B5816085BD80916E00816080936E00D9
:1009E00010928100809181008260809381008091CB
:1009F000810081608093810080918000816080937C
:100A000080008091B10084608093B1008091B0003B
:100A100081608093B00080917A00846080937A0036
:100A200080917A00826080937A0080917A00816060
:100A300080937A0080917A00806880937A00109287
:100A4000C10010924D0210924C0210924B02109273
:100A50004A0210924902109248028FE190E090936E
:100A60004F0280934E0290913E02963108F047C0AB
:100A700021E030E030934902209348022DE130E03C
:100A800030934B0220934A022DE030E030934D0228
:100A900020934C022091680084E0983048F031E0C7
:100AA0009E3008F430E081E001C0880F3A95EAF703
:100AB000822B809368002DE630E0983050F02BE6D2
:100AC00030E09E3030F02CE630E0963110F030E02F
:100AD00020E03093460220934502292F30E09830E1
:100AE00008F06FC081E001C0880F9A95EAF7809303
:100AF000470280914E0290914F020197F1F7809149
:100B00004C0290914D02892B49F1E0918401F091C2
:100B1000850182E0E233F80709F1309739F0A389C3
:100B2000B4899C918589809589238C93809150020A
:100B30008E7F80935002109283011092820182E393
:100B400092E09093850180938401E0914502F091B9
:100B50004602808190914702892B80836AE271E08E
:100B600082E392E00E94C6026EE371E082E392E0CB
:100B70000E94C60261E085E00E94B90161E085E063
:100B80000E946D0100E010E082E392E00E948C027E
:100B90001816190644F582E392E00E94A202C82FBB
:100BA000682F8FE891E00E94EC006EE371E08FE81F
:100BB00091E00E94C602C63489F0C33529F761E08E
:100BC0000EC09E3040F42850310981E001C0880FEA
:100BD0002A95EAF78CCF2E503109F7CF60E085E0F7
:100BE0000E946D01D1CF0115110571F20E945901CA
:100BF000882351F20E940000C7CF80912C0290916F
:100C00002D02009711F00E94FA068CE191E090937A
:100C10003302809332028091840190918501825346
:100C2000924071F4E0914502F091460290818091EA
:100C30004702809589238083109285011092840158
:100C400008952F923F924F925F926F927F928F9270
:100C50009F92AF92BF92CF92DF92EF92FF920F934B
:100C60001F93CF93DF93CDB7DEB7CA1BDB0B0FB655
:100C7000F894DEBF0FBECDBF09942A883988488812
:100C80005F846E847D848C849B84AA84B984C884A8
:100C9000DF80EE80FD800C811B81AA81B981CE0F9F
:100CA000D11D0FB6F894DEBF0FBECDBFED01089584
:100CB000EE0FFF1F0590F491E02D09940F931F9301
:100CC000CF93DF938230910510F482E090E0E091C1
:100CD0005302F091540230E020E0B0E0A0E0309701
:100CE00099F42115310509F44AC0281B390B243029
:100CF0003105D8F58A819B816115710589F1FB0168
:100D000093838283FE0111C040815181028113814E
:100D100048175907E0F04817590799F4109761F000
:100D200012960C93129713961C933296CF01DF9173
:100D3000CF911F910F910895009353021093540285
:100D4000F4CF2115310551F04217530738F0A901AE
:100D5000DB019A01BD01DF01F801C1CFEF01F9CF3D
:100D60009093540280935302CDCFFE01E20FF31F04
:100D7000819391932250310939832883D7CF2091D1
:100D8000510230915202232B41F420910201309103
:100D900003013093520220935102209100013091BF
:100DA00001012115310541F42DB73EB740910401F1
:100DB00050910501241B350BE0915102F091520234
:100DC000E217F307A0F42E1B3F0B2817390778F022
:100DD000AC014E5F5F4F2417350748F04E0F5F1F81
:100DE0005093520240935102819391939FCFF0E030
:100DF000E0E09CCFCF93DF930097E9F0FC013297BE
:100E000013821282A0915302B0915402ED0130E09E
:100E100020E01097A1F420813181820F931F20914F
:100E20005102309152022817390709F061C0F0933E
:100E30005202E0935102DF91CF910895EA01CE175B
:100E4000DF07E8F54A815B819E0141155105B1F745
:100E5000E901FB83EA8349915991C40FD51FEC172F
:100E6000FD0761F4808191810296840F951FE9014D
:100E700099838883828193819B838A83F0E0E0E079
:100E800012968D919C9113970097B9F52D913C91F5
:100E90001197CD010296820F931F2091510230913C
:100EA00052022817390739F6309751F5109254023B
:100EB00010925302B0935202A0935102BCCFD3833D
:100EC000C28340815181840F951FC817D90761F4EF
:100ED0004E5F5F4F88819981480F591F518340832E
:100EE0008A819B81938382832115310509F0B0CFDC
:100EF000F0935402E09353029ECFFD01DC01C0CF7A
:100F000013821282D7CFB0E0A0E0E9E8F7E00C94BA
:100F100023068C01009751F4CB010E945E068C01E0
:100F2000C801CDB7DEB7E0E10C943F06FC01E60F47
:100F3000F71F9C0122503109E217F30708F49DC006
:100F4000D901CD91DC911197C617D70798F0C5301C
:100F5000D10530F3CE0104978617970708F3C61B17
:100F6000D70B2297C193D1936D937C93CF010E94AD
:100F7000FA06D6CF5B01AC1ABD0A4C018C0E9D1E41
:100F8000A0915302B0915402512C412CF12CE12C30
:100F9000109731F580915102909152028815990570
:100FA00009F05CC04616570608F058C08091000151
:100FB00090910101009741F48DB79EB740910401D3
:100FC00050910501841B950BE817F90708F055C0EF
:100FD000F0935202E0935102F90171836083A0CF34
:100FE0008D919C91119712966C90129713967C900C
:100FF0001397A815B90559F56C0142E0C40ED11C30
:10100000CA14DB0420F1AC014A195B09DA0112961B
:10101000159780F06282738251834083D9016D936A
:101020007C93E114F10471F0D7011396FC93EE93D5
:10103000129776CF22968C0F9D1FF90191838083A2
:10104000F301EFCFF0935402E093530269CF4816B7
:10105000590608F42C017D01D3019ACFCB010E94DF
:101060005E067C01009749F0AE01B8010E9440087D
:10107000C8010E94FA06870153CF10E000E050CF6C
:10108000FB01DC0102C001900D9241505040D8F7A5
:101090000895FB01DC0101900D920020E1F7089515
:1010A00010E0C2E6D0E004C0FE010E94580621967E
:0A10B000C336D107C9F7F894FFCF4B
:1010BA0000005502800000000000EC00EA018D00EB
:1010CA003901BE009C00B000000000003002EA01B5
:1010DA00C3022F028C02A2021702456C6563747266
:1010EA0069632066757365207265616479000D0A0B
:0210FA000000F4
:00000001FF
